:100000000A128A11F32FFF1B0D2883137F18831701
:100010000008840A0319FF0A080000308A00040857
:10002000840A82070034013400340A340034643412
:100030000034E834033410342734253464342E3447
:100040002534643425346434563400345334313424
:100050003A340034533432343A3400345334333481
:040060003A340034FA
:10057400F00070088312031393000800831603131A
:10058400141CC52AC62AC02A080064008001840AF3
:100594000406031900340406C82A0A128A11C02268
:1005A4000A128A118312031313080800F300831636
:1005B40003138712731DDF2AE02AE42A72089400C9
:1005C4008715E82A7008720494008711730871046F
:1005D4008312031394000800F30083120313081317
:1005E40073080A128A1126230A128A11831203132A
:1005F40088170630F2003030F100F10BFF2AF20BBD
:10060400FF2A0000831203138813080083160317BC
:100614008801890183160313071186018801831257
:100624000313860188010715831603130F178F160A
:100634000F120F14F001F101F20120300A128A1195
:10064400D8220A128A110800F000701C2A2B2B2BC6
:100654002F2B831203130616322B83120313061255
:10066400F01C352B362B382B8616392B8612701D31
:100674003C2B3D2B3F2B0617402B0613F01D432B21
:10068400442B462B8617472B86130800F401F501EB
:10069400701C4D2B4E2B542B7208F4070318F50ACB
:1006A4007308F50701300310F20DF30DFF3E031D2F
:1006B400552B01300310F10CF00CFF3E031D5C2B95
:1006C40070087104031D672B682B4A2B7508F10011
:1006D4007408F0000800F40074080F39F20074087C
:1006E400F039F3008312031308177308F100043080
:1006F4000310F10CFF3E031D7A2B71080A128A11B4
:1007040026230A128A118312031388170D30F1006D
:10071400F10B8A2B83120313881372080A128A11AD
:1007240026230A128A118312031388170D30F1004D
:10073400F10B9A2B8312031388130800FC00831215
:10074400031349084B02F6004A08031C4A0A4C02E8
:10075400F7007C08FB0049087B02F0004A090318F3
:10076400013EF1004D084F02F2004E08031C4E0AF0
:100774005002F3000A128A1148230A128A117108DE
:10078400F9007008F8000A128A1193250A128A11D6
:10079400831203134D087607C9004E0803184E0A46
:1007A4007707CA000800780879040319DA2BDB2BD1
:1007B4000A2CFD01FD0AE92B01300310F80DF90D97
:1007C400FF3E031DDF2B0130FC007C08FD07F91FF1
:1007D400EC2BED2BDE2B79087B02031DF32B780821
:1007E4007A02031CF62BF72BFD2B7808FA02790802
:1007F400031CFB03FB0201300310F90CF80CFF3E51
:10080400031DFE2B0130FD02031D092C0A2CED2BC8
:100814007B08F9007A08F8000800FA01FB01342C7F
:100824007A087507F8007608F7000318F70AFA1F24
:100834001C2CF7037708F900790883120313FF00CF
:10084400780884000A128A1103200A128A110A12F3
:100854008A116D230A128A110130FA070318FB0A60
:100864000030FB077A087507F8007608F7000318CC
:10087400F70AFA1F3E2CF7037708F9007908831268
:100884000313FF00780884000A128A1103200A1255
:100894008A11003A031D4F2C502C122C0800F5012C
:1008A400F601700871040319582C592C902CF70187
:1008B400F70A672C01300310F00DF10DFF3E031D04
:1008C4005D2C0130F4007408F707F11F6A2C6B2CBF
:1008D4005C2C01300310F50DF60DFF3E031D6C2C4E
:1008E40071087302031D782C70087202031C7B2CA0
:1008F4007C2C832C7008F2027108031CF303F302AE
:10090400751401300310F10CF00CFF3E031D842C10
:100914000130F702031D8F2C902C6B2C7608F1000C
:100924007508F0000800F6007603031D9A2C9B2C32
:10093400B82C74087F3EF9007908F50004300310E0
:10094400F50CFF3E031DA12C7508F70079080F393B
:10095400F80077080A128A11EE220A128A1178081E
:100964000A128A11EE220A128A11DA2C0230760651
:10097400031DBD2CBE2CDA2C7408BF3EF900790887
:10098400F50004300310F50CFF3E031DC42C75085C
:10099400F70079080F39F80077080A128A11EE2255
:1009A4000A128A1178080A128A11EE220A128A118E
:1009B4000800FD0183120313CC1FE12CE22CE92C67
:1009C400CB09CC09CB0A0319CC0AFD01FD0ACA1FC5
:1009D400EC2CED2CF22CC909CA09C90A0319CA0A5C
:1009E40049084A040319F72CF82C272DFC01FC0AAA
:1009F400062D01300310C90DCA0DFF3E031DFC2C4A
:100A04000130FB007B08FC07CA1F092D0A2DFB2CB3
:100A14004A084C02031D102D49084B02031C132DD8
:100A2400142D1A2D4908CB024A08031CCC03CC020E
:100A340001300310CA0CC90CFF3E031D1B2D0130ED
:100A4400FC02031D262D272D0A2D7D0803192B2DAD
:100A54002C2D312DCB09CC09CB0A0319CC0A4C0817
:100A6400CA004B08C900080000300A128A11262364
:100A74000A128A111A30F500F830F400F40B402DF4
:100A8400F50B402D000003300A128A11EE220A12DF
:100A94008A110730F5007D30F400F40B4F2DF50B6F
:100AA4004F2D03300A128A11EE220A128A114230A3
:100AB400F400F40B5B2D000003300A128A11EE22BD
:100AC4000A128A1102300A128A11EE220A128A11BB
:100AD40002300A128A11EE220A128A1108300A120E
:100AE4008A11EE220A128A1100300A128A11EE22A9
:100AF4000A128A110C300A128A11EE220A128A1181
:100B040000300A128A11EE220A128A1106300A12E1
:100B14008A11EE220A128A112130F400F40B902D6E
:100B2400080083120313C601F71F992D9A2DA12DD6
:100B3400F609F709F60A0319F70AC601C60AF91FE6
:100B4400A42DA52DAE2DF809F909F80A0319F90AFF
:100B54000130FA007A08C606C701C801760877048E
:100B64000319B52DB62DED2DC501C50AC42D0130CF
:100B74000310F60DF70DFF3E031DBA2D0130FA00E8
:100B84007A08C507F71FC72DC82DB92D01300310EA
:100B9400C70DC80DFF3E031DC92D77087902031D3B
:100BA400D52D76087802031CD82DD92DE02D760892
:100BB400F8027708031CF903F90247140130031003
:100BC400F70CF60CFF3E031DE12D0130C502031D99
:100BD400EC2DED2DC82D46080319F12DF22DF72D1E
:100BE400C709C809C70A0319C80A4808F70047080B
:100BF400F600080083120313D4004630CF00C12E40
:100C0400253055060319072E082E122E5408840089
:100C14005508831380000130CC004C08D407C12E42
:100C2400D0010130C507FF30450784000A128A113C
:100C34000D200A128A11D500CC00CD014D08003ACE
:100C44000319252EC12E4C08003A0319D12E643AFB
:100C54000319302E0D3A0319302EC12E4F0884008B
:100C640083130008D200840A0008D3000230CC00A9
:100C74004C08CF07D31F3F2E402E492E0330CC0003
:100C84004C08D004D209D309D20A0319D30AD501D6
:100C9400D50A5508CC004C07013E84000A128A117B
:100CA4000D200A128A11CD000A128A110D200A128F
:100CB4008A11CE004E085302031D622E4D085202C3
:100CC4000318652E662E672E712E0130CC004C0859
:100CD400D50705305506031D702E712E4B2E500876
:100CE40003390319762E772E802E540884002D3074
:100CF400831380000130CC004C08D4075508D10080
:100D0400B82E0A30F8000030F9005108CC004C0726
:100D1400013E84000A128A110D200A128A11F00081
:100D24000A128A110D200A128A11F1005308F300E5
:100D34005208F2000A128A1151240A128A11710807
:100D4400FB007008FA000A128A11D5230A128A11CC
:100D54007808303E83120313D500540884005508E4
:100D6400831380000130CC004C08D407FF30CC0042
:100D74004C08D107510A031DC02EC12E832E013009
:100D8400C507FF30450784000A128A110D200A1294
:100D94008A11D5005508031DD02ED12E022E5408D9
:100DA40084008313800108000A128A1108230A129E
:100DB4008A110A128A1136250A128A110730F400A0
:100DC40001300A128A1195240A128A111830F5008A
:100DD4008030F6000A128A110F240A128A11F401D3
:100DE400F40A01300A128A1195240A128A11143065
:100DF400F5008030F6000A128A110F240A128A11B3
:100E04000E30F40001300A128A1195240A128A1154
:100E14001C30F5008030F6000A128A110F240A12E1
:100E24008A11063083120313D8001330D700AD3073
:100E3400D600D60B1B2FD70B1B2FD80B1B2F8312BF
:100E44000313071101300A128A11BA220A128A11F5
:100E54000A128A11CF220A128A1183120313B000D4
:100E6400C73083120313D600372FD60B362F3A2FF1
:100E74008312031307150030C900CA00FF30CB00EA
:100E84000030CC000030CD00CE006430CF00003004
:100E9400D00030080A128A11A0230A128A11831280
:100EA40003134A08AF004908AE006430F60000306E
:100EB400F7002F08F1002E08F0000530F200003092
:100EC400F3000A128A1148230A128A117108F900E0
:100ED4007008F8000A128A1193250A128A117708F9
:100EE40083120313AB007608AA000A30C90000304D
:100EF400CA000A30F6000030F7002F08F1002E086F
:100F0400F0000530F2000030F3000A128A11482381
:100F14000A128A117108F9007008F8000A128A117D
:100F240093250A128A11770883120313CC007608DA
:100F3400CB000A128A11DB240A128A1183120313CA
:100F44004A08A9004908A8000A30C9000030CA00AC
:100F54002F08F1002E08F0000530F2000030F300F5
:100F64000A128A1148230A128A1171088312031380
:100F7400CC007008CB000A128A11DB240A128A11F1
:100F8400831203134A08A7004908A600F401F40ACF
:100F940002300A128A1195240A128A110B30831224
:100FA4000313C5002B08C7002A08C6002908C90076
:100FB4002808C8002708CB002608CA0031300A12C6
:100FC4008A11FC250A128A113130F5000030F6002E
:100FD4000A128A110F240A128A11212F0A128A1165
:100FE400002883132030840045300A128A11C72256
:0C0FF4000A128A1183010A128A11D62EFB
:08400000FF3FFF3FFF3FFF3FC0
:04400E00D420FF3F7C
:00000001FF
