:100000000A128A11F32FFF1B0D2883137F18831701
:100010000008840A0319FF0A080000308A00040857
:10002000840A82070034013400340A340034643412
:100030000034E834033410342734253464342E3447
:100040002534643425346434563400345334313424
:100050003A340034533432343A3400345334333481
:040060003A340034FA
:1003D400F0007008831203139300080083160313BC
:1003E400141CF529F629F029080064008001840A08
:1003F4000406031900340406F8290A128A11F021AC
:100404000A128A118312031313080800F3008316D7
:1004140003138712731D0F2A102A142A72089400DA
:100424008715182A700872049400871173087104E0
:100434008312031394000800F300831203130813B8
:1004440073080A128A1158220A128A11831203139A
:1004540088170630F2003030F100F10B2F2AF20B2E
:100464002F2A00008312031388130800831603172E
:1004740088018901831603130711881286018801F4
:100484008312031386018801071588168316031344
:100494000F178F160F120F14F001F101F201203023
:1004A4000A128A1108220A128A110800F000701C2C
:1004B4005C2A5D2A612A831203130616642A8312B6
:1004C40003130612F01C672A682A6A2A86166B2A06
:1004D4008612701D6E2A6F2A712A0617722A061355
:1004E400F01D752A762A782A8617792A8613080039
:1004F400F401F501701C7F2A802A862A7208F40709
:100504000318F50A7308F50701300310F20DF30D13
:10051400FF3E031D872A01300310F10CF00CFF3E4F
:10052400031D8E2A70087104031D992A9A2A7C2AB5
:100534007508F1007408F0000800F40074080F391D
:10054400F2007408F039F3008312031308177308D8
:10055400F10004300310F10CFF3E031DAC2A7108B6
:100564000A128A1158220A128A1183120313881755
:100574000D30F100F10BBC2A8312031388137208A7
:100584000A128A1158220A128A1183120313881735
:100594000D30F100F10BCC2A8312031388130800E9
:1005A400FC00831203134A084C02F6004B08031C98
:1005B4004B0A4D02F7007C08FB004A087B02F0005E
:1005C4004B090318013EF1004E085002F2004F0897
:1005D400031C4F0A5102F3000A128A117A220A12EA
:1005E4008A117108F9007008F8000A128A11C524EA
:1005F4000A128A11831203134E087607CA004F08A1
:1006040003184F0A7707CB00080078087904031908
:100614000C2B0D2B3C2BFD01FD0A1B2B0130031071
:10062400F80DF90DFF3E031D112B0130FC007C0871
:10063400FD07F91F1E2B1F2B102B79087B02031DAE
:10064400252B78087A02031C282B292B2F2B7808BA
:10065400FA027908031CFB03FB0201300310F90CB6
:10066400F80CFF3E031D302B0130FD02031D3B2B14
:100674003C2B1F2B7B08F9007A08F8000800FA01CC
:10068400FB01662B7A087507F8007608F700031853
:10069400F70AFA1F4E2BF7037708F900790883123B
:1006A4000313FF00780884000A128A1103200A1237
:1006B4008A110A128A119F220A128A110130FA073A
:1006C4000318FB0A0030FB077A087507F800760860
:1006D400F7000318F70AFA1F702BF7037708F900DD
:1006E400790883120313FF00780884000A128A1120
:1006F40003200A128A11003A031D812B822B442BFA
:100704000800F501F6017008710403198A2B8B2B7C
:10071400C22BF701F70A992B01300310F00DF10DEC
:10072400FF3E031D8F2B0130F4007408F707F11FFF
:100734009C2B9D2B8E2B01300310F50DF60DFF3EE7
:10074400031D9E2B71087302031DAA2B70087202ED
:10075400031CAD2BAE2BB52B7008F2027108031CE1
:10076400F303F302751401300310F10CF00CFF3E97
:10077400031DB62B0130F702031DC12BC22B9D2B89
:100784007608F1007508F0000800F6007603031DF2
:10079400CC2BCD2BEA2B74087F3EF9007908F500A9
:1007A40004300310F50CFF3E031DD32B7508F7002E
:1007B40079080F39F80077080A128A111E220A12E2
:1007C4008A1178080A128A111E220A128A110C2C24
:1007D40002307606031DEF2BF02B0C2C7408BF3E61
:1007E400F9007908F50004300310F50CFF3E031DF1
:1007F400F62B7508F70079080F39F80077080A1204
:100804008A111E220A128A1178080A128A111E22DB
:100814000A128A110800FD0183120313CD1F132C41
:10082400142C1B2CCC09CD09CC0A0319CD0AFD01CB
:10083400FD0ACB1F1E2C1F2C242CCA09CB09CA0A63
:100844000319CB0A4A084B040319292C2A2C592CC6
:10085400FC01FC0A382C01300310CA0DCB0DFF3EFD
:10086400031D2E2C0130FB007B08FC07CB1F3B2C07
:100874003C2C2D2C4B084D02031D422C4A084C02E3
:10088400031C452C462C4C2C4A08CC024B08031C58
:10089400CD03CD0201300310CB0CCA0CFF3E031D67
:1008A4004D2C0130FC02031D582C592C3C2C7D0886
:1008B40003195D2C5E2C632CCC09CD09CC0A0319D9
:1008C400CD0A4D08CB004C08CA00080000300A12BB
:1008D4008A1158220A128A111A30F500F830F400ED
:1008E400F40B722CF50B722C000003300A128A11DF
:1008F4001E220A128A110730F5007D30F400F40B31
:10090400812CF50B812C03300A128A111E220A1243
:100914008A114230F400F40B8D2C000003300A12CB
:100924008A111E220A128A1102300A128A111E2208
:100934000A128A1102300A128A111E220A128A111C
:1009440008300A128A111E220A128A1100300A1271
:100954008A111E220A128A110C300A128A111E22CE
:100964000A128A1100300A128A111E220A128A11EE
:1009740006300A128A111E220A128A112130F4004A
:10098400F40BC22C080083120313C701F71FCB2CEE
:10099400CC2CD32CF609F709F60A0319F70AC70178
:1009A400C70AF91FD62CD72CE02CF809F909F80A44
:1009B4000319F90A0130FA007A08C706C801C90107
:1009C400760877040319E72CE82C1F2DC601C60A04
:1009D400F62C01300310F60DF70DFF3E031DEC2C31
:1009E4000130FA007A08C607F71FF92CFA2CEB2C11
:1009F40001300310C80DC90DFF3E031DFB2C770801
:100A04007902031D072D76087802031C0A2D0B2D8D
:100A1400122D7608F8027708031CF903F90248142A
:100A240001300310F70CF60CFF3E031D132D0130AB
:100A3400C602031D1E2D1F2DFA2C47080319232D52
:100A4400242D292DC809C909C80A0319C90A490846
:100A5400F7004808F600080083120313D500473056
:100A6400D000F32D253056060319392D3A2D442D87
:100A7400550884005608831380000130CD004D08CA
:100A8400D507F32DD1010130C607FF304607840096
:100A94000A128A110D200A128A11D600CD00CE0145
:100AA4004E08003A0319572DF32D4D08003A031947
:100AB400032E643A0319622D0D3A0319622DF32DA6
:100AC4005008840083130008D300840A0008D4006B
:100AD4000230CD004D08D007D41F712D722D7B2D0F
:100AE4000330CD004D08D104D309D409D30A031926
:100AF400D40AD601D60A5608CD004D07013E84001B
:100B04000A128A110D200A128A11CE000A128A11C1
:100B14000D200A128A11CF004F085402031D942D90
:100B24004E0853020318972D982D992DA32D0130AB
:100B3400CD004D08D60705305606031DA22DA32D62
:100B44007D2D510803390319A82DA92DB22D55085F
:100B540084002D30831380000130CD004D08D5076B
:100B64005608D200EA2D0A30F8000030F900520885
:100B7400CD004D07013E84000A128A110D200A128D
:100B84008A11F0000A128A110D200A128A11F1004A
:100B94005408F3005308F2000A128A1183230A123C
:100BA4008A117108FB007008FA000A128A110723DF
:100BB4000A128A117808303E83120313D6005508AE
:100BC40084005608831380000130CD004D08D507FA
:100BD400FF30CD004D08D207520A031DF22DF32D2C
:100BE400B52D0130C607FF30460784000A128A116A
:100BF4000D200A128A11D6005608031D022E032E58
:100C0400342D550884008313800108000A128A11C8
:100C140038220A128A110A128A1168240A128A11C5
:100C24000730F40001300A128A11C7230A128A110C
:100C34001830F5008030F6000A128A1141230A1296
:100C44008A11F401F40A01300A128A11C7230A1224
:100C54008A111430F5008030F6000A128A114123FB
:100C64000A128A110E30F40001300A128A11C723C5
:100C74000A128A111C30F5008030F6000A128A111B
:100C840041230A128A11063083120313D900133048
:100C9400D800AD30D700D70B4D2ED80B4D2ED90B25
:100CA4004D2E83120313071101300A128A11EA210F
:100CB4000A128A110A128A11FF210A128A11831256
:100CC4000313B100C73083120313D700692ED70B67
:100CD400682E6C2E831203130715881202300A1231
:100CE4008A11EA210A128A110A128A11FF210A12B0
:100CF4008A1183120313B000C73083120313D70081
:100D0400832ED70B822E862E83120313881600306F
:100D1400CA00CB00FF30CC000030CD000030CE0044
:100D2400CF006430D0000030D10031080A128A119B
:100D3400D2220A128A11831203134B08AF004A0805
:100D4400AE006430F6000030F7002F08F1002E08E2
:100D5400F0000530F2000030F3000A128A117A2202
:100D64000A128A117108F9007008F8000A128A112F
:100D7400C5240A128A11770883120313AB0076087C
:100D8400AA000A30CA000030CB000A30F600003056
:100D9400F7002F08F1002E08F0000530F2000030B3
:100DA400F3000A128A117A220A128A117108F900D0
:100DB4007008F8000A128A11C5240A128A117708E9
:100DC40083120313CD007608CC000A128A110D2475
:100DD4000A128A11831203134B08A9004A08A800B7
:100DE4000A30CA000030CB002F08F1002E08F000B2
:100DF4000530F2000030F3000A128A117A220A1236
:100E04008A11710883120313CD007008CC000A12F2
:100E14008A110D240A128A11831203134B08A700A6
:100E24004A08A600F401F40A02300A128A11C72300
:100E34000A128A110B3083120313C6002B08C80050
:100E44002A08C7002908CA002808C9002708CC00B6
:100E54002608CB0032300A128A112E250A128A1172
:100E64003230F5000030F6000A128A1141230A12CA
:100E74008A11003083120313CA00CB00FF30CC0068
:100E84000030CD000030CE00CF006430D000003000
:100E9400D10030080A128A11D2220A128A1183124E
:100EA40003134B08AD004A08AC006430F600003070
:100EB400F7002D08F1002C08F0000530F200003096
:100EC400F3000A128A117A220A128A117108F900AF
:100ED4007008F8000A128A11C5240A128A117708C8
:100EE40083120313A5007608A4000A30CA00003058
:100EF400CB000A30F6000030F7002D08F1002C0872
:100F0400F0000530F2000030F3000A128A117A2250
:100F14000A128A117108F9007008F8000A128A117D
:100F2400C5240A128A11770883120313CD007608A8
:100F3400CC000A128A110D240A128A118312031397
:100F44004B08A3004A08A2000A30CA000030CB00B4
:100F54002D08F1002C08F0000530F2000030F300F9
:100F64000A128A117A220A128A117108831203134F
:100F7400CD007008CC000A128A110D240A128A11BD
:100F8400831203134B08A1004A08A0000730F400A1
:100F940002300A128A11C7230A128A110B308312F3
:100FA4000313C6002508C8002408C7002308CA0084
:100FB4002208C9002108CC002008CB0032300A12D4
:100FC4008A112E250A128A113230F5000030F600FB
:100FD4000A128A1141230A128A11532E0A128A1103
:100FE400002883132030840046300A128A11F72126
:0C0FF4000A128A1183010A128A11082EC9
:08400000FF3FFF3FFF3FFF3FC0
:04400E00D420FF3F7C
:00000001FF
