:060000000A128A110C280F
:10000800FE00030EF3000A08F4000A128A111628EB
:100018000A128A110F28F601F701F80183010A1262
:100028008A11AB28831203130C1F1B281C282A28AB
:100038001F0CF100710C0F39003A031D24282528E4
:1000480029281E08F800C3309F050C138C1D2D2885
:100058002E2848280A128A11BC200A128A11F10097
:10006800F2017108F6007208F70076037704031DA1
:100078003E283F28482878080A128A11CC200A12FC
:100088008A11831203138C1174088A00730E83007B
:10009800FE0E7E0E09008316031708140812890144
:1000A80083160313851686018801831203138601BC
:1000B80088018B170B17831603130C17831203136E
:1000C8008C11831603138C150F178F160F120F142C
:1000D80083120313A001A101A20124300A128A117C
:1000E80078200A128A110800F50083160313871274
:1000F800751D7F28802888288312031322088316F9
:1001080003139400871590288312031320082204F0
:1001180083160313940087117508831203132104AF
:1001280094000800831203139F131F1783160313E9
:100138009F121F129F13831203139F121F129F11E6
:100148001F111F142130F500F50BA82808000A120A
:100158008A114F200A128A110A128A1196200A124D
:100168008A11831203139F14B5280A128A110C28C6
:100178000A128A11C5200A128A118312031313085E
:10018800080083160313141CCA28CB28C5280800A6
:0C019800F00070088312031393000800AD
:08400000FF3FFF3FFF3FFF3FC0
:04400E00D420FF3F7C
:00000001FF
