:060000000A128A110C280F
:10000800FE00030EF3000A08F4000A128A111628EB
:100018000A128A110F28F601F701F80183010A1262
:100028008A11AC28831203130C1F1B281C282A28AA
:100038001F0CF100710C0F39003A031D24282528E4
:1000480029281E08F800C3309F050C138C1D2D2885
:100058002E2849280A128A11BD200A128A11F10095
:10006800F2017108F6007208F7000230760677048C
:10007800031D3F284028492878080A128A11CD20F4
:100088000A128A11831203138C1174088A00730EE2
:100098008300FE0E7E0E090083160317081408124B
:1000A80089018316031385168601880183120313B9
:1000B800860188018B170B17831603130C178312FD
:1000C80003138C11831603138C150F178F160F1239
:1000D8000F1483120313A001A101A20124300A12F4
:1000E8008A1179200A128A110800F5008316031371
:1000F8008712751D802881288928831203132208F6
:10010800831603139400871591288312031320087C
:1001180022048316031394008711750883120313AE
:10012800210494000800831203139F131F178316DA
:1001380003139F121F129F13831203139F121F1280
:100148009F111F111F142130F500F50BA928080075
:100158000A128A1150200A128A110A128A1197204B
:100168000A128A11831203139F14B6280A128A11DD
:100178000C280A128A11C6200A128A118312031344
:100188001308080083160313141CCB28CC28C62890
:0E0198000800F00070088312031393000800A3
:08400000FF3FFF3FFF3FFF3FC0
:04400E00D420FF3F7C
:00000001FF
